:020000040000FA
:100000009831AC2DFF3F25006108003A03193728CD
:10001000F1017108073C031C27282600E61B132862
:1000200021008D13152821008D170830FD00FD0BD0
:1000300017280D170830FD00FD0B1C280D13083084
:10004000FD00FD0B21282600E635F10A09282100D4
:100050008D170830FD00FD0B2B280D170830FD0013
:10006000FD0B30280D130830FD00FD0B352808006E
:1000700025006108003A0319522821000D170830A5
:10008000FD00FD0B41288D170830FD00FD0B4628B3
:100090008D130830FD00FD0B4B280D130830FD00BB
:1000A000FD0B502808002000F801F9011030FC0079
:1000B000710DF80DF90D7408F8027508031C750F21
:1000C000F90203186A287408F80775080318750FF1
:1000D000F9070310F00DF10DFC0B582808007B15F3
:1000E000FB1F79280130F300F201F101F001FA0D54
:1000F000F20CFF300800FA1FF21300300800250050
:100100006108003A0319942821008D130830FD007E
:10011000FD0B88280D170830FD00FD0B8D288D176D
:100120000830FD00FD0B922808002600E301053091
:1001300063020318A5286308610786000030623D4A
:10014000870020308100E30A972863086107860052
:100150000030623D87008101E30363086107E4002A
:100160000030623DE5000A30F400F5015F08F00060
:100170006008F10053207808F0007908F100303071
:10018000F007260064088600650887007008810073
:100190000A30F400F5015F08F0006008F100532018
:1001A00070082600DF007108E00000307106031DB2
:1001B000DB2800307006031DDE28E028E303AD28AD
:1001C00008002430FD00FD0BE3280000080020009B
:1001D0007008F100F0010830FC007108F40C0318FD
:1001E000F528FC0BEE28F10100340310FA28F40C7A
:1001F0000318F107F10CF00CFC0BF72808002500A0
:10020000620826006007E300382025006A082600FF
:10021000E60003202600E601032026005F08B03E2A
:10022000E6000320260063080F3C031C1B2963081B
:10023000E100E2012C296308F200F236F236F236D0
:10024000F2367208E2007208F000F035F035F03551
:10025000F03570086302E1006108E6000320260023
:100260006208103EE6000320382025006A082600B8
:10027000E600032040302600E60003200800F201DB
:10028000F101F001F801F30100300800FB14FB1F3D
:100290005029FF30F300F200F100F000FA0DF20CEB
:1002A000FF3008002600DB01DC015508DD005608A0
:1002B000DE0080305606F00080307002031D622997
:1002C00000305502031870290130DB000030DC00DB
:1002D0005508003CDD005608031C013EDE01DE022D
:1002E0005D08DF005E08E0005708E1005808E20002
:1002F00095200630D9000030DA005A08003C031D72
:1003000083295908003C03189E295908570786007D
:100310005A08583D870001305902F00000305A3B1E
:10032000F1007008570784007108583D85000008E7
:1003300081000130D9020030DA3B7D295708860060
:1003400058088700203081005B085C040319C42929
:10035000D901DA015908570784005A08583D850029
:100360000008203A031DB829D90A0319DA0AAA2974
:100370000130D9020030DA3B5908570786005A0885
:10038000583D87002D3081000800382025006A087C
:100390002600E600032040302600E6000320260069
:1003A0005608DF005508E000FF202600DA01590852
:1003B0005A0203188B2A5A08570784000030583D08
:1003C00085000008003A031DE729DC01F0295A08DE
:1003D000570784000030583D850020300002DC00C3
:1003E000DB015B08043C031C832A5C08F000053039
:1003F000F400E72026005B08F0070030F13D3F30B5
:1004000070078400A330713D85000008DD005608A8
:10041000023A013003190030F1005608043A013065
:1004200003190030F0007008F1055608063A013053
:1004300003190030F0007108F0050319482ADD198E
:10044000232ADE13242ADE17DD19282A5E13292A1F
:100450005E175D192D2ADE122E2ADE165D19322A4C
:100460005E12332A5E16DD18372ADE11382ADE15B1
:10047000DD183C2A5E113D2A5E155D18412ADE100A
:10048000422ADE145D18462A5E10472A5E14682A46
:100490005D194C2ADE134D2ADE175D19512A5E13B1
:1004A000522A5E17DD18562ADE12572ADE16DD188C
:1004B0005B2A5E125C2A5E165D18602ADE11612AD4
:1004C000DE155D18652A5E11662A5E15DE105E1067
:1004D0005E08E600032025006108043A0130031D90
:1004E0000030F1006108053A0130031D0030F000D2
:1004F0007108F0040319802A26005E08E600032034
:100500002600DB0AF129E60103202600E60103208C
:100510002600DA0AD729560ADF005508E000FF2036
:100520002600DA0159085A0203184E2B5A085707B9
:1005300084000030583D85000008003A031DA22ABF
:10054000DC01AB2A5A08570784000030583D85006B
:1005500020300002DC00DB015B08043C031C462B5E
:100560005C08F0000530F400E72026005B08F00787
:100570000030F13D3F3070078400A330713D8500AD
:100580000008DD005608023A013003190030F1007E
:100590005608043A013003190030F0007008F105E4
:1005A0005608063A013003190030F0007108F005D2
:1005B0000319032BDD1BDE2ADE13DF2ADE17DD1B0A
:1005C000E32A5E13E42A5E175D1BE82ADE12E92A9D
:1005D000DE165D1BED2A5E12EE2A5E16DD1AF22A89
:1005E000DE11F32ADE15DD1AF72A5E11F82A5E15F0
:1005F0005D1AFC2ADE10FD2ADE145D1A012B5E1046
:10060000022B5E142B2B5D1B072BDE13082BDE1732
:100610005D1B0C2B5E130D2B5E17DD1A112BDE12EA
:10062000122BDE16DD1A162B5E12172B5E165D1AC4
:100630001B2BDE111C2BDE155D1A202B5E11212BCE
:100640005E15DD19252BDE10262BDE14DD192A2B75
:100650005E102B2B5E145E08E60003202500610867
:10066000043A0130031D0030F1006108053A013001
:10067000031D0030F0007108F0040319432B26001D
:100680005E08E60003202600DB0AAC2AE601032010
:100690002600E60103202600DA0A922A7F200800BD
:1006A0002600D6012500E8010130EB0026005508A0
:1006B000D600D635D635D635D63525006908031986
:1006C000642B08302600D60725006B0803196B2B16
:1006D00004302600D607250068080319722B023063
:1006E0002600D607250060080319782B2600D60AB5
:1006F000382025006A082600E60003202600560858
:10070000E60003207F200730FC007D30FD00FD0B5C
:10071000872BFC0B872B04302600D60238202500BF
:100720006A082600E600032026005608E60003209B
:100730007F200730FC007D30FD00FD0B9D2BFC0B66
:100740009D2B08007B14FB1FAD2BF201FA1FFF301D
:10075000F200F100F000FA0DF20CFF300800043056
:10076000FC003A30FD00FD0BB32BFC0BB32B00005B
:100770000800A1017208031DCE2B7108F200700859
:10078000F100F001A1157208031DCE2B7108F200D3
:10079000F101A111211672080319DC2B2108F302C3
:1007A000031D031CE02B0310F21BE42BF00DF10DD5
:1007B000F20DF30BD42BE02B0130FC003F21E72B93
:1007C0000230FC006F20E72B0430FC007B20080087
:1007D000833021009D0526005508F000F035F035E6
:1007E000700821009D04E1209D149D1CF82BF52B21
:1007F0001C08F100F0011B08F0040030F1040800AF
:10080000FB15FF3008007C18392CFC180A2C7C19C9
:10081000582C032CA1017208031D2A2C7108F20028
:100820007008F1007808F000F801A1157208031DA6
:100830002A2C7108F2007008F100F001A1112116B4
:100840007208031D2A2C7108F200F101A11572082B
:1008500003194C2C2108F302031D031C502C031018
:10086000F21B392CF80DF00DF10DF20DF30B302CBD
:10087000502C7B1B701C542CF81F542CF00A0319AD
:10088000F10A0319F20A031D542CF20CF10CF00CBE
:10089000F30A0319582C542C0130FC003F215B2C27
:1008A0000230FC006F205B2C0430FC007B205B2CB2
:1008B0000830FC004621000008007408F8027508A2
:1008C000031C750FF9027608031C760FFA027708ED
:1008D000031C770FFB02F30D0730FC00730DF80DBE
:1008E000F90DFA0DFB0D7408731C842CF8027508C1
:1008F000031C750FF9027608031C760FFA027708BD
:10090000031C770FFB02912CF80775080318750F6D
:10091000F90776080318760FFA0777080318770F98
:10092000FB07F30DFC0B6E2C720DF80DF90DFA0D93
:10093000FB0D7408731CAA2CF8027508031C750FB4
:10094000F9027608031C760FFA027708031C770F6A
:10095000FB02B72CF80775080318750FF90776081E
:100960000318760FFA0777080318770FFB07F20DC5
:100970000730FC00720DF80DF90DFA0DFB0D74082F
:10098000721CD02CF8027508031C750FF90276084A
:10099000031C760FFA027708031C770FFB02DD2C8D
:1009A000F80775080318750FF90776080318760F0E
:1009B000FA0777080318770FFB07F20DFC0BBA2C28
:1009C000710DF80DF90DFA0DFB0D7408721CF62C63
:1009D000F8027508031C750FF9027608031C760FE0
:1009E000FA027708031C770FFB02032DF80775083E
:1009F0000318750FF90776080318760FFA077708BA
:100A00000318770FFB07F10D0730FC00710DF80D8F
:100A1000F90DFA0DFB0D7408711C1C2DF8027508F8
:100A2000031C750FF9027608031C760FFA0277088B
:100A3000031C770FFB02292DF80775080318750FA3
:100A4000F90776080318760FFA0777080318770F67
:100A5000FB07F10DFC0B062D700DF80DF90DFA0DCD
:100A6000FB0D7408711C422DF8027508031C750FEC
:100A7000F9027608031C760FFA027708031C770F39
:100A8000FB024F2DF80775080318750FF907760854
:100A90000318760FFA0777080318770FFB07F00D96
:100AA0000730FC00700DF80DF90DFA0DFB0D740800
:100AB000701C682DF8027508031C750FF902760882
:100AC000031C760FFA027708031C770FFB02752DC3
:100AD000F80775080318750FF90776080318760FDD
:100AE000FA0777080318770FFB07F00DFC0B522D60
:100AF0007018882D7408F80775080318750FF90722
:100B000076080318760FFA0777080318770FFB07A4
:100B10000800FB09FA09F909F809F80A0319F90AA2
:100B20000319FA0A0319FB0A08008030F00080302C
:100B300026004F067002031D9F2D4E08503C031CDB
:100B4000A42DF001F101772E8030F00080304F06A7
:100B50007002031DAD2D4E08AB3C031CB42DF430C8
:100B6000CE070030CF3D732E8030013AF000803048
:100B70004F067002031DBE2D4E08483C031CC52DB8
:100B8000FE30CE070030CF3D732E8030023AF000A9
:100B900080304F067002031DCF2D4E08463C031CCB
:100BA000D62D1830CE070130CF3D732E8030033A5A
:100BB000F00080304F067002031DE02D4E08343CDB
:100BC000031CE72D2930CE070130CF3D732E803036
:100BD000043AF00080304F067002031DF12D4E08DC
:100BE0004C3C031CF82D3630CE070130CF3D732E20
:100BF0008030083AF00080304F067002031D022E4C
:100C00004E08853C031C092EAE30CE070130CF3D87
:100C1000732E80300C3AF00080304F067002031DB6
:100C2000132E4E08FA3C031C1A2EE430CE07013076
:100C3000CF3D732E8030123AF00080304F067002A4
:100C4000031D242E4E080F3C031C2B2E1230CE0702
:100C50000230CF3D732E8030163AF00080304F06C0
:100C60007002031D352E4E08E63C031C3C2E8830D6
:100C7000CE070230CF3D732E80301B3AF00080301B
:100C80004F067002031D462E4E08EA3C031C4D2EF3
:100C9000E730CE070230CF3D732E8030213AF0008E
:100CA00080304F067002031D572E4E08363C031C41
:100CB0005E2E2030CE070330CF3D732E8030293A90
:100CC000F00080304F067002031D682E4E08043C71
:100CD000031C6F2E4830CE070330CF3D732E5C309F
:100CE000CE070330CF3D4E08F0004F08F10008005A
:100CF000813022009700171B7E2E7B2E01302600AC
:100D0000D500E82370082600CE007108CF0080309F
:100D1000033AF200803071067202031D912E7008B2
:100D2000E83C031C982E4E08F0004F08F100E02E1E
:100D3000823022009700171B9E2E9B2E013026002A
:100D4000D500E82370082600CE007108CF0080305F
:100D5000033AF200803071067202031DB12E700852
:100D6000E83C031CBA2E4E08F0004F08F100F035A5
:100D7000F10DE02E833022009700171BC02EBD2EF0
:100D800001302600D500E82370082600CE00710847
:100D9000CF007108043A031DCF2E00307006031DEA
:100DA000D52E01302200EF00D72E2200EF012600C1
:100DB0004E08F0004F08F100F035F10DF035F10D5F
:100DC0000800813022009700171BE72EE42E260032
:100DD000D501E82370082600CE007108CF008030CE
:100DE000033AF200803071067202031DF92E70087A
:100DF000E83C031C002F4E08F0004F08F1003B2F89
:100E0000823022009700171B062F032F2600D501E2
:100E1000E82370082600CE007108CF008030033A26
:100E2000F200803071067202031D182F7008E83C32
:100E3000031C212F4E08F0004F08F100F035F10D92
:100E40003B2F833022009700171B272F242F2600CB
:100E5000D501E82370082600CE007108CF00700885
:100E6000F2007108F300F235F30DF235F30D72085C
:100E7000F0007308F10008002000FB01FA01F901FD
:100E80008030F800F10CF00C031C4F2F7408F907A8
:100E900075080318750FFA070318FB0A0310F01FF3
:100EA000572F7408FA0775080318750FFB07FB0C1A
:100EB000FA0CF90CF80C031C422F7B08F3007A089B
:100EC000F2007908F1007808F000080038202500C9
:100ED0006A082600E600032080302600E600032092
:100EE00026004E08E60003207F200800200070083E
:100EF000F8007108F000F101F201F301FB01FC01BF
:100F00009630F300FA01F01F8B2FF809F009F80A68
:100F10000319F00AFA177008F1007808F000F801D8
:100F2000F201B92308002000FA017308031D7A14A6
:100F30007708031DFA147A080319DE2F033A031900
:100F4000A92F7A18A62FF61FDC2FDA2FF21FDA2F1F
:100F5000DC2F72088039FA00F21376088039F61314
:100F60007A060319B72F7A080319DA2FDC2F7708CE
:100F700073020319BE2F031CD22FD62F76087202DC
:100F80000319C52F031CD22FD62F75087102031920
:100F9000CC2F031CD22FD62F740870020319DE2F1A
:100FA0000318D62FFA080319DC2FDA2FFA080319D1
:100FB000DA2FDC2F031408000310080003140315B4
:100FC0000800080020007008F800FB01FC019E30BA
:100FD000F300FA01F201F101F0010230FC000324F8
:100FE0000800E8302500E3000330E4005530E50058
:100FF0000330E600F03021009E009D011D14080022
:1010000020002230FC00F801F901FA01FB01FC0389
:10101000031935280310FB0CFA0CF90CF80CF30C2F
:10102000F20CF10CF00C031C0728FC030319272811
:101030007408F80775080318750FF9077608031880
:10104000760FFA0777080318770FFB070B28740849
:10105000F80775080318750FF90776080318760F57
:10106000FA0777080318770FFB0708002600D4015A
:101070005008F1000130F000710803194228F035E2
:10108000FF3E3D287008D3004E0884004F088500BD
:1010900070080005F10071080130031D0030F000F8
:1010A0005208F006031972285108003C0318602802
:1010B0008031AF2388318031AF238831D103542868
:1010C0004E0884004F08850053080005F1007108A0
:1010D0000130031D0030F0005208F0060319722899
:1010E000FF30D4005408F000080064002500C0015F
:1010F000C10120006D1C812825004208C00743085B
:10110000C13D2000ED1C892825005A08C0075B0856
:10111000C13D20006D1D912825005808C0075908C1
:10112000C13D2000ED1D992825005E08C0075F081D
:10113000C13D20006D1EA12825005C08C0075D0888
:10114000C13D2000ED1EA92825005608C0075708FC
:10115000C13D20006D1FB12825004D08C0074E0875
:10116000C13D25008030273AF000803041067002F2
:10117000031DBC2840080F3C0318DE28323040070E
:10118000F0000030413DF1007008C0007108C1005E
:1011900070082600D5007108D600C630D70002308E
:1011A000D80080315221883125004708CF004808F7
:1011B000D0002E30D1004908D2000A29400826006C
:1011C000D500250041082600D600C630D7000230E1
:1011D000D80080315221883125004808203A03196F
:1011E000F4284808CF00F6283030CF002E30D00049
:1011F0004908203A0319FF284908D1000129303055
:10120000D1004A08203A031908294A08D2000A29BD
:101210003030D2006F08043A0130031D0030F10075
:101220006F08053A0130031D0030F0007108F0042A
:101230000319212920006F08013A031D20292029C4
:10124000442925006F08023A0130031D0030F100E7
:101250006F08033A0130031D0030F0007108F004FC
:101260000319392920006F08013A031D382938294C
:10127000442925006F08013A031D442920006F0806
:10128000013A031D4429442964002500C001C1011D
:1012900020006B1C502925003A08C0073B08C13DBF
:1012A0002000EB1C582925003808C0073908C13D2B
:1012B00020006B1D602925003E08C0073F08C13D86
:1012C0002000EB1D682925003C08C0073D08C13DF2
:1012D00020006B1E702925003608C0073708C13D65
:1012E0002000EB1E782925003408C0073508C13DD1
:1012F00020006B1F802925003208C0073308C13D3C
:10130000250040082600D500250041082600D6000B
:10131000C630D7000230D8008031522188312500F4
:101320004808CF004908D0004A08D1004B08D20035
:101330006F08043A0130031D0030F1006F08053AD0
:101340000130031D0030F0007108F0040319AF29CB
:1013500020006F08013A031DAE29AE29D2292500CD
:101360006F08023A0130031D0030F1006F08033AA4
:101370000130031D0030F0007108F0040319C72983
:1013800020006F08013A031DC629C629D22925006D
:101390006F08013A031DD22920006F08013A031D8E
:1013A000D229D229640008007408003A031DED29EF
:1013B0007508003A031DED297608003A031DED2952
:1013C0007708003A031DED29FF30F000FF30F100EF
:1013D000FF30F2007F30F300892A2000FC01F71B68
:1013E000FC0AFD01FB01FA01F901F801730872041E
:1013F000710470040319822A73087706A000A01BE9
:10140000FD09F71F0E2AF409F509F609F709F40A90
:101410000319F50A0319F60A0319F70AF31F1B2A21
:10142000F009F109F209F309F00A0319F10A0319A5
:10143000F20A0319F30A73087704A000A01B3E2ADE
:1014400080315D248831FC1B5B2AFD1F822AF00954
:10145000F109F209F309F00A0319F10A0319F20A72
:101460000319F30AF809F909FA09FB09F80A03193B
:10147000F90A0319FA0A0319FB0A822AF71F552AE7
:10148000F31B4F2A7308FB007208FA007108F90079
:101490007008F800F301F201F101F001252AF301CF
:1014A000F201F101F001F00A0034F309F209F10947
:1014B000F009FC17202AF80A0319F90A0319FA0A95
:1014C0000319FB0A74087802031D252A750879029E
:1014D000031D252A76087A02031D252A77087B0238
:1014E000031D252AFB01FA01F901F801F00A03198D
:1014F000F10A0319F20A0319F30AF31F252AA001BE
:101500002016FF34A0017C1C882A8031892588316F
:10151000003E08002000FB017308031D7708031933
:10152000E02A72087606FA007708F3077E30031C7B
:101530009D2AF3020318E52AA02AF302031CEA2AD3
:101540007208F8007108FC007008FD00F817F61723
:101550000310F201F101F0011830A1007D1CBA2A3C
:101560007408F00775080318750FF107760803185B
:10157000760FF207F20CF10CF00CF80CFC0CFD0CE1
:101580000310A10BAE2AF21BCA2AF80DF00DF10DC3
:10159000F20DF3037B1B701CDC2AF81FDC2AF00A17
:1015A0000319F10A0319F20A031DDC2AF20CF10CEB
:1015B000F00CF30A0319E52AFA1FF2130030EE2AA1
:1015C000013080313F218831EE2A023080314621BE
:1015D0008831EE2A043080316F2088310000080005
:1015E0002000FB01730803192C2B7208FA00F21774
:1015F0008E30F302F31F2F2BF309F30A0830730226
:10160000031C122BF300F10D7208F100F2010830F7
:101610007302031C122BF300F10DF1017308031D7B
:1016200003101A2B730803191A2B0310F20CF10C78
:10163000F30B152B7B1B711C242B031C242BF10A91
:101640000319F20AF21B3B2BFA1F3E2BF209F10998
:10165000F10A0319F20A3E2BF201F1013E2B7B1431
:10166000FB1F412BF201FA1F412BFF30F200F1006A
:10167000FA0DF20C412B0130FC00432B0030FC0032
:10168000432BFF30FC00FC080319492B8031A223B7
:1016900088317108F0007208F1000800200072081B
:1016A0007606A100F801F90173087702031C702B7C
:1016B0007708FD007308F7007D08F3007608FD0049
:1016C0007208F6007D08F2007508FD007108F5004B
:1016D0007D08F1007408FD007008F4007D08F0003A
:1016E00077080319F12B7208FA00F217F61777083A
:1016F0007302F7000319A32B08307702031C992B00
:10170000F7007408F9007508F4007608F500F60192
:1017100008307702031C992BF7007408F90075084C
:10172000F400F50108307702031C992B7A08F200C7
:10173000F12B77080319A32B0310F60CF50CF40C0E
:10174000F90CF70B9C2BA11FB02BF909F409F50933
:10175000F609F90A0319F40A0319F50A0319F60A36
:101760007908F80774080318740FF0077508031850
:10177000750FF10776080318760FF207A11BC92B26
:10178000031CD92BF20CF10CF00CF80CF30FD92B35
:10179000EB2B0318DF2BF809F009F109F209F80A1D
:1017A0000319F00A0319F10A0319F20A8030FA0644
:1017B000E52B0130FC00803103248831F32B02300B
:1017C000FC00803103248831F32B0430FC0080318D
:1017D000B9238831F32B0830FC0080314621883151
:1017E000F32B0030FC000000080020007008F80017
:1017F0007108F0007208F1007308F200F301FB01B8
:10180000FC019E30F300FA01F21F122CF809F009D6
:10181000F109F209F80A0319F00A0319F10A031988
:10182000F20AFA170230FC008031032488310800E4
:1018300025006108043A0130031D0030F100610801
:10184000053A0130031D0030F0007108F00403195F
:10185000382C26004F08D5004E08D6005008D70077
:101860005108D8005208D9008031C52188319E2CFA
:1018700025006108023A0130031D0030F1006108C3
:10188000033A0130031D0030F0007108F004031921
:10189000622C0730F00026004F08F4008031E7206A
:1018A0008831043070072600D5004E08D600D635A2
:1018B0005008D7005108D8005208D9008031C521FE
:1018C00088319E2C2500E00126004E08F000F035FE
:1018D000F0357008083ED50080315023883126004D
:1018E0004F08D50080315023883101302500E000B9
:1018F0002600D3015208530203189E2C53085007A8
:1019000084000030513D85000008F1007108D500C9
:10191000D536D536D536D536803150238831260098
:101920005308500784000030513D85000008D50061
:101930008031502388312600D30A7A2C080074089D
:10194000003A031DB82C7508003A031DB82C760820
:10195000003A031DB82C7708003A031DB82CFF305D
:10196000F000FF30F1007F30F200FF30F3005A2D1D
:10197000200077080319462D730803194B2D7208B0
:1019800076068039FA00F217F617A1017208F800FE
:101990007108FC007008FD007408FD027508031C46
:1019A000750FFC027608031C760FF802F801FC01A3
:1019B000FD01031CE22C0310F20CF10CF00CF80CEE
:1019C0000130A1007708F302031CEC2C7E302107C4
:1019D000F3070318502DF12C7E302107F307031C69
:1019E000552D1830FA07FD0DFC0DF80DF00DF10D19
:1019F000F20DA10D7408F0027508031C750FF102B9
:101A00007608031C760FF202760DA104211C0A2D24
:101A10007D14152D7408F00775080318750FF1076C
:101A200076080318760AF2077D10FA031F307A054C
:101A3000031DF32C7B1B7D1C3C2D0310F00DF10DC1
:101A4000F20DA10D7408F0027508031C750FF10268
:101A50007608031C760FF202760D21040139FD078A
:101A60000318FC0A0319F80A031D3C2DF80CFC0CA2
:101A7000FD0CF30A0319502DFA1FF8137808F20031
:101A80007C08F1007D08F0000030592D01308031D4
:101A900000248831592D023080313F218831592D61
:101AA0000430803146218831592D083080316F2033
:101AB0008831000008000D302600CE000030CF0035
:101AC000D0011930D100D20136207008B2000D309B
:101AD000CE000030CF000130D0001930D100D2014B
:101AE00036207008B2040D30CE000030CF00023036
:101AF000D0001930D100D20136203208F004031989
:101B0000842D01302100EF00080026003208F0008B
:101B1000F036F036F036F0360A30F4008031E72047
:101B200088310F3026003205F1007108F0070800F7
:101B300064002600330821006C06031DA22D6B08EB
:101B4000260032060319652E260032082100EB001C
:101B5000260033082100EC00003026003306031D68
:101B6000B32D01303206031DF12D25006F08043A14
:101B70000130031D0030F1006F08053A0130031DEC
:101B80000030F0007108F0040319D32D0230260054
:101B9000CE004030CF00B930D0000030D10004304A
:101BA000D2001824ED2D25006F08003A0319E52D09
:101BB00001302600CE000430CF00B430D000003019
:101BC000D1000430D2001824ED2D25006F08003A12
:101BD000031DED2D22000D178D172100EB01EC01E7
:101BE000652E260032082100EB0026003308210074
:101BF000EC0026003208D5003308D600C630D700E6
:101C00000230D80080315221883125004908CF00A8
:101C10002E30D0004A08D1004B08D2006F08043A99
:101C20000130031D0030F1006F08053A0130031D3B
:101C30000030F0007108F00403192B2E023026004A
:101C4000CE004030CF00CF30D0000230D100043081
:101C5000D2001824652E25006F08003A03193D2E86
:101C600001302600CE000430CF00CF30D00002304B
:101C7000D1000430D2001824652E25006F08003AE8
:101C8000031D652E8030F000803026003306700280
:101C9000031D4C2E3208963C031C522E22000D13BD
:101CA0008D17652E8030F0008030260033067002DC
:101CB000031D5C2E3208FA3C031C622E20000D131B
:101CC0008D13652E20000D178D136400080026006B
:101CD000320823009100920195131513151413086F
:101CE000F000080088302600B4001330B500B601BB
:101CF000B7018830F0001330F1000030F2000030FE
:101D0000F3003208F4003308F500F601F701002073
:101D100070082600B4007108B5007208B600730898
:101D2000B70000307302031D9F2E00307202031DA6
:101D30009F2E02307102031D9F2EB23070020318D5
:101D4000A22ED12EB230B4020230B53B0030B63BE9
:101D5000B73B0530F00070080319B42EB736B60C47
:101D6000B50CB40CFF3EAC2E3408F0003508F10081
:101D70003608F2003708F3000130B4020030B53BFA
:101D8000B63BB73B70087104720473040319D12E7B
:101D90000000000000000000000000000000000043
:101DA000B42E080025006108013C0318DE2EAF3078
:101DB0002600CE00803166278831F02E250061088C
:101DC000013A031DF02E0130E900E0012600D501A3
:101DD0008031502388312600D5018031502388314D
:101DE000080026002C18F72E22000E10F92E2200D3
:101DF0000E14250044082600B200250045082600E0
:101E0000B3007226080025006108013C03180F2F5B
:101E1000AE302600CE00803166278831202F250085
:101E20006108013A031D202FE901E0012600D501D8
:101E30008031502388312600D501803150238831EC
:101E4000080007302600B200672670082500E7006A
:101E500008302600B200672670082500E2006108FD
:101E6000013C0318372F983100208831A92F250015
:101E70006108013A031DA92F0130E900E001033098
:101E80002600D5008031502388312130FC00763087
:101E9000FD00FD0B492FFC0B492F000003302600ED
:101EA000D5008031502388310730FC007D30FD00A3
:101EB000FD0B582FFC0B582F03302600D500803126
:101EC0005023883102302600D500803150238831DC
:101ED00002302600D500803150238831083026009A
:101EE000D5008031502388312600D5018031502320
:101EF000883108302600D5008031502388312600F3
:101F0000D50180315023883101302600D500803141
:101F1000502388312130FC007630FD00FD0B8E2FE0
:101F2000FC0B8E2F00002600D50180315023883114
:101F300006302600D5008031502388312600D50197
:101F40008031502388310C302600D5008031502359
:101F50008831080026002C18B02F22008E13B22FD3
:101F600022008E172600AC18B82F22008E11BA2F2F
:101F700022008E1526002C19C02F22000E13C22F0E
:101F800022000E172600AC19C82F22000E11CA2FEE
:101F900022000E1526002C1AD02F22008E12D22FCE
:101FA00022008E162600AC1AD82F22008E10DA2FAF
:101FB00022008E1426002C1BE02F22000E12E22F8E
:101FC00022000E16250044082600B2002500450810
:101FD0002600B3007226080012001E00F003031D45
:101FE000EC2FF103031DEC2F08005034573452340A
:101FF0003D34203420343034573400341034273406
:1020000064008031782690317008B2007108B30006
:102010000030B31BFF30B400B5008031E1269031B1
:102020007008B6007108B7000030B71BFF30B80069
:10203000B90020006E08013A031D3F28260032082F
:10204000F0003308F1000330F4000030F500803177
:102050003C27903170082600CE007108CF008031F7
:102060009525903180317627903170082600BA008E
:102070007108BB007208BC007308BD005C28260014
:102080003208F0003308F1003408F2003508F3009C
:102090000330F400F501F601F7018831002090319A
:1020A0008831F523903170082600BA007108BB0012
:1020B0007208BC007308BD0080303906F000803023
:1020C00035067002031D6E2834083802031D6E2881
:1020D00033083702031D6E2832083602031C7728A6
:1020E000E730B2000330B300B401B501C1283608AF
:1020F0003207F0003708333DF1003808343DF20074
:102100003908353DF3006430F400F501F601F701BC
:1021100088310020903126003208F4003308F500A1
:102120003408F6003508F7003608F4023708F53BA6
:102130003808F63B3908F73B8831D42190317008D4
:102140002600B2007108B3007208B4007308B5002D
:102150008030F400803073067402031DB9287208C1
:10216000003C031DB9287108033C031DB928700801
:10217000E73C0318C128E730B2000330B300B401D4
:10218000B50120006C08F0008031E2279031260074
:102190003A08F4003B08F5003C08F6003D08F7005B
:1021A00088318A2290310030F4000030F5007A3016
:1021B000F6008830F70088319F249031700826009F
:1021C000BA007108BB007208BC007308BD00F4308F
:1021D000F400FD30F5003430F6007F30F700883130
:1021E0009F24903170082600BA007108BB00720865
:1021F000BC007308BD0024006F08013A031D2929A3
:1022000026003A08F0003B08F1003C08F2003D08C7
:10221000F3003A08F4003B08F5003C08F6003D08DE
:10222000F70088318A2290310030F4000030F50048
:102230004830F6008430F70088319F2490317008D0
:102240002600BA007108BB007208BC007308BD000C
:10225000512926003A08F0003B08F1003C08F20042
:102260003D08F3003A08F4003B08F5003C08F6008E
:102270003D08F70088318A2290310030F4000030A8
:10228000F5002030F6008130F70088319F2490312E
:1022900070082600BA007108BB007208BC00730801
:1022A000BD003A08F0003B08F1003C08F2003D0890
:1022B000F3000030F4000030F5000030F6007E300E
:1022C000F70088314E23903170082600BA0071085B
:1022D000BB007208BC007308BD008831F022903149
:1022E00070082600AA007108AB0080307106F20069
:1022F00080307202031D7E290A307002031885297E
:102300000130A6000030A700A12980303506F0007A
:1023100080307002031D962900303402031D962977
:1023200000303302031D96296430320203189D29C0
:10233000E730A6000330A700A1293208A600330821
:10234000A700080000302600BA000030BB0048306B
:10235000BC008530BD00640020002308003A013035
:10236000031D0030F1002208013A0130031D003046
:10237000F0007008F105803026003506F00080304E
:102380007002031DC529643034020130031C003083
:10239000F0007108F00503198B2A20005808003A54
:1023A000031D872A25006F08043A0130031D003001
:1023B000F1006F08053A0130031D0030F00071088C
:1023C000F0040319142A24006F08013A031DF729A9
:1023D00004302600CE001030CF004F30D000003047
:1023E000D1000830D200883118249031052A0430F9
:1023F0002600CE001030CF006230D0000030D10077
:102400000830D20088311824903106302600CE00E2
:102410001030CF005930D0000030D1000830D20049
:10242000883118249031872A25006F08023A01303C
:10243000031D0030F1006F08033A0130031D003026
:10244000F0007108F0040319542A24006F08013ABF
:10245000031D382A2600CE010A30CF004630D000B6
:102460000030D1000830D200883118249031452A3C
:102470002600CE010930CF002D30D0000030D10031
:102480000830D20088311824903101302600CE0067
:102490000930CF002430D0000030D1000830D20005
:1024A000883118249031872A25006F08013A031DCE
:1024B000872A24006F08013A031D6C2A2600CE01EA
:1024C0000A30CF003E30D0000030D1000830D200BA
:1024D000883118249031792A2600CE010A30CF00A5
:1024E0003630D0000030D1000830D20088311824B6
:1024F000903101302600CE000A30CF00A030D0004D
:102500000030D1000830D2008831182490310130D9
:102510002000D800952A20005808013A031D932A6C
:102520008831752090312000D801640026003308DE
:1025300021003006031D9F2A2F08260032060319AA
:102540008C2E260032082100AF002600330821001F
:10255000B00024006F08003A031DFD2A80302600D9
:102560003306F00080307002031DB82A6430320256
:10257000031CD92A05303207F0000030333DF1004A
:102580007008B2007108B3007008D5007108D60059
:10259000C630D7000230D80080315221903125005A
:1025A0004808CF004908D0004A08D1005730D2006F
:1025B000FC2A26003208D5003308D600C630D700E2
:1025C0000230D80080315221903125004A08203A4B
:1025D0000319ED2A4A08CF00EF2A3030CF002E3001
:1025E000D0004B08203A0319F82A4B08D100FA2AE8
:1025F0003030D1005730D200342B803026003306E3
:10260000F0008030033A7002031D082BE7303202DD
:1026100003181F2B3208D5003308D600C630D70068
:102620000230D80080315221903125004908CF0076
:102630004A08D0004B08D1005730D200342B260076
:102640003208D5003308D600C630D7000230D80093
:1026500080315221903125004808CF004908D00030
:102660004A08D1004B08D2006F08043A0130031D1C
:102670000030F1006F08053A0130031D0030F00012
:102680007108F0040319522B2600CE014030CF0010
:10269000CF30D0000230D1000430D200883118246D
:1026A0009031642B25006F08003A0319642B260033
:1026B000CE010430CF00CF30D0000230D100043042
:1026C000D200883118249031640020006D08003A4F
:1026D0000130031D0030F1006B08003A0130031D8A
:1026E0000030F0007108F00503197E2B2600340835
:1026F0002500EC00260035082500ED0025006C08BB
:10270000F0006D08F10080317627903170082600C6
:10271000C6007108C7007208C8007308C9000030FD
:10272000F4000030F5004830F6008530F700460828
:10273000F0004708F1004808F2004908F30088312A
:102740009F24903170082600C2007108C3007208EF
:10275000C4007308C5004608F4004708F50048089F
:10276000F6004908F7000030F0000030F100483072
:10277000F2008530F30088319F2490312600420812
:10278000F4004308F5004408F6004508F7008831D6
:102790004E23903170082600C2007108C3007208F1
:1027A000C4007308C50025006E08F0008031E227E0
:1027B000903126004208F4004308F5004408F60072
:1027C0004508F70088318A2290310030F40000304B
:1027D000F5002030F6008230F70088319F249031D8
:1027E0001F30F4008530F5006B30F6007B30F700C9
:1027F00088318A2290310030F4000030F50000303A
:10280000F6007F30F70088314E2390317008F400D5
:102810007108F5007208F6007308F7000030F00048
:102820000030F1000030F2007F30F30088319F2447
:10283000903170082600CA007108CB007208CC00E5
:102840007308CD004A08BA004B08BB004C08BC0016
:102850004D08BD003408F0003508F10080317627BE
:10286000903170082600C6007108C7007208C800C1
:102870007308C9000030F4000030F5004830F6005D
:102880008530F7004608F0004708F1004808F200DC
:102890004908F30088319F2490310030F400003063
:1028A000F5000030F6008030F70088314E2390317B
:1028B00070082600C2007108C3007208C4007308C3
:1028C000C5004608F4004708F5004808F600490826
:1028D000F7000030F0000030F1004830F2008530A1
:1028E000F30088319F24903126004208F400430809
:1028F000F5004408F6004508F70088314E23903172
:102900007008F4007108F5007208F6007308F7000B
:102910000030F0000030F1000030F2008130F300B0
:1029200088319F24903170082600BE007108BF00D6
:102930007208C0007308C1000030F4000030F500D8
:102940000030F6007F30F7004A08F0004B08F10035
:102950004C08F2004D08F30080319327903101308C
:10296000031C0030F00070080319BF2C0030260053
:10297000BA000030BB000030BC007F30BD00260034
:102980000030F4000030F5000030F6007F30F70032
:102990003E08F0003F08F1004008F2004108F30053
:1029A0008031932790310130031C0030F000700813
:1029B0000319E32C00302600BE000030BF000030B9
:1029C000C0007F30C10026003208F0003308F1005B
:1029D00080317627903126003A08F4003B08F50054
:1029E0003C08F6003D08F70088318A229031260025
:1029F0003E08F4003F08F5004008F6004108F700E3
:102A000088318A2290318831F02290317008260076
:102A1000C2007108C3004208B6004308B7003A0874
:102A2000F0003B08F1003C08F2003D08F3003E08CE
:102A3000F4003F08F5004008F6004108F70088312F
:102A40008A2290310030F4000030F5004830F60062
:102A50008530F70088318A2290318831F022903118
:102A600070082600B8007108B90000304306031D45
:102A70003B2D00304206031D3F2DB801B9018030C7
:102A80003906F00080307002031D482D6430380292
:102A9000031C4E2D6330B8000030B90024006F08CD
:102AA000003A031DA22D803026003706F00080304A
:102AB0007002031D5D2D64303602031C7E2D05302F
:102AC0003607F0000030373DF1007008B60071089D
:102AD000B7007008D5007108D600C630D7000230A4
:102AE000D80080315221903125004808CF00490894
:102AF000D0004A08D1005730D200A12D2600360858
:102B0000D5003708D600C630D7000230D800803153
:102B10005221903125004A08203A0319922D4A0883
:102B2000CF00942D3030CF002E30D0004B08203A0B
:102B300003199D2D4B08D1009F2D3030D100573007
:102B4000D200D92D803026003706F0008030033ABD
:102B50007002031DAD2DE73036020318C42D360870
:102B6000D5003708D600C630D7000230D8008031F3
:102B70005221903125004908CF004A08D0004B0867
:102B8000D1005730D200D92D26003608D50037089D
:102B9000D600C630D7000230D800803152219031A3
:102BA00025004808CF004908D0004A08D1004B084A
:102BB000D2006F08043A0130031D0030F1006F08A5
:102BC000053A0130031D0030F0007108F0040319CC
:102BD000F82D04302600CE004030CF00CF30D0009A
:102BE0000230D1000430D200883118249031292ECF
:102BF00025006F08023A0130031D0030F1006F0814
:102C0000033A0130031D0030F0007108F00403198D
:102C1000172E2600CE010D30CF00CF30D00002306D
:102C2000D1000430D200883118249031292E25009B
:102C30006F08013A031D292E2600CE010D30CF006A
:102C4000CF30D0000230D1000430D20088311824B7
:102C5000903126003808D5003908D600C630D70094
:102C60000230D80080315221903125004A08CF002F
:102C70004B08D0006F08043A0130031D0030F1000A
:102C80006F08053A0130031D0030F0007108F004B0
:102C90000319592E06302600CE004C30CF00CF301D
:102CA000D0000230D1000230D20088311824903197
:102CB0008C2E25006F08023A0130031D0030F10010
:102CC0006F08033A0130031D0030F0007108F00472
:102CD0000319792E01302600CE000E30CF00CF3000
:102CE000D0000230D1000230D20088311824903157
:102CF0008C2E25006F08013A031D8C2E0130260012
:102D0000CE000E30CF00CF30D0000230D1000230E4
:102D1000D200883118249031640008002100310865
:102D2000003A031DCC2E26002C18992E22008D115E
:102D30009B2E22008D152600AC18A12E22000C110E
:102D4000A32E22000C1526002C19A92E22000D12EC
:102D5000AB2E22000D162600AC19B12E22008C11CC
:102D6000B32E22008C1526002C1AB92E22008D12AB
:102D7000BB2E22008D162600AC1AC12E22008C120A
:102D8000C32E22008C1626002C1BC92E22000C12EA
:102D9000CB2E22000C16042F26002C18D22E220037
:102DA0008D15D42E22008D112600AC18DA2E2200AB
:102DB0000C15DC2E22000C1126002C19E22E22000C
:102DC0000D16E42E22000D122600AC19EA2E220068
:102DD0008C15EC2E22008C1126002C1AF22E2200CB
:102DE0008D16F42E22008D122600AC1AFA2E220027
:102DF0008C16FC2E22008C1226002C1B022F220087
:102E00000C16042F22000C12250044082600B200E4
:102E1000250045082600B30088317226903108004D
:102E20002600B20188316726903170082500EA003B
:102E300001302600B20088316726903170082500E5
:102E4000E1007008003A031D2C2F21000D138D1393
:102E500022000D178D17322F21000D178D1722001C
:102E60000D138D1308006400640023008C010C1402
:102E70008C148D0122009113931378302100990056
:102E800020008C018D018E01403022008C008D01CC
:102E90008E01033021008C0007308D008E018031BF
:102EA000F12790311E149E14951324000D148D14D7
:102EB0000D158B130800203400345334573452342A
:102EC0003D3430342E3430343034203445344634BC
:102ED00046343D342034203430342534003420341A
:102EE00020344634523441344E344B3445344E341D
:102EF0004D34453454344534523420342034003475
:102F00000034623479342034573442343234433418
:102F100042344134003400344634523441344E3467
:102F20004B3445344E344D344534543445345234A6
:102F30000034263420344E3437344434443443345B
:102F400000345034573452343D3430342E3430341D
:102F500057340034013400344534463446343D346B
:102F60002034203430342534003441344E34543449
:102F70003D3430342E3430345734003441344E3400
:102F80003D3430342E3430345734003441344E34F0
:102F90003D342034203430345734003441344E34FE
:102FA00054343D34203420343034573400344134E8
:102FB0004E3454343D3420342034303457340034CB
:102FC00000344534463446343D34203420343034E3
:102FD0002534003441344E3454343D3430342E34AE
:102FE0003034573400340034203400340134003499
:102FF0003334333413348034003400340034003438
:1030000080313820983125006A082600E60080319A
:10301000032098312600E601803103209831AE303C
:103020002600E60080310320983125006108023A2D
:103030000130031D0030F1006108033A0130031D27
:103040000030F0007108F0040319DC28D5302600A8
:10305000E60080310320983180302600E600803180
:1030600003209831A8302600E600803103209831F3
:103070003F302600E600803103209831D33026000F
:10308000E60080310320983125006108023A031DD3
:10309000502867082600E600803103209831582820
:1030A000250067081F3E2600E60080310320983186
:1030B00040302600E6008031032098318D30260014
:1030C000E60080310320983114302600E60080317C
:1030D0000320983181302600E600803103209831AA
:1030E000B4302600E600803103209831D930260024
:1030F000E60080310320983122302600E60080313E
:103100000320983120302600E600803103209831DA
:1031100002302600E600803103209831213026005D
:10312000E6008031032098312600E601803103203B
:1031300098317F302600E6008031032098312E3010
:103140002600E60080310320983125006108023A0C
:10315000031DB728A0302600E600803103209831F7
:10316000C0302600E600803103209831C328A1300A
:103170002600E600803103209831C8302600E600A2
:10318000803103209831DA302600E60080310320B8
:10319000983102302600E600803103209831DB3080
:1031A0002600E60080310320983140302600E600FA
:1031B0008031032098318429D5302600E600803103
:1031C0000320983180302600E600803103209831BA
:1031D000A8302600E6008031032098313F302600D9
:1031E000E600803103209831D3302600E60080319C
:1031F00003209831250067082600E600803103206F
:10320000983140302600E6008031032098318D301F
:103210002600E60080310320983114302600E600B5
:1032200080310320983181302600E6008031032070
:103230009831FF302600E600803103209831D930E4
:103240002600E600803103209831F1302600E600A8
:1032500080310320983120302600E60080310320A1
:10326000983102302600E600803103209831213069
:103270002600E6008031032098312600E6018031E7
:10328000032098317F302600E600803103209831FA
:103290002E302600E6008031032098312500610899
:1032A000043A031D6029A0302600E6008031032087
:1032B0009831C0302600E6008031032098316C2917
:1032C000A1302600E600803103209831C830260066
:1032D000E600803103209831DA302600E6008031A4
:1032E0000320983112302600E60080310320983107
:1032F000DB302600E6008031032098314030260084
:10330000E600803103209831A4302600E6008031A9
:1033100003209831A6302600E60080310320983142
:1033200080317F2098310330FB008A30FC0055301B
:10333000FD00FD0B9929FC0B9929FB0B9929000035
:10334000000080313820983125006A082600E60008
:1033500080310320983140302600E6008031032080
:10336000983125006108023A0130031D0030F10058
:103370006108033A0130031D0030F0007108F004C9
:103380000319DF292600B3013308033C031CDE299F
:103390003308DF00E0018031FF2098312600B201C0
:1033A0002600803032020318DB29B20AE6018031A0
:1033B00003209831D0292600B30AC429FB2926000E
:1033C000B3013308073C031CFB293308DF00E0018D
:1033D0008031FF2098312600B20126008030320271
:1033E0000318F829B20AE601803103209831ED294B
:1033F0002600B30AE12980317F209831AF302600C2
:10340000CE0080316627983108002600AE01AF015A
:103410000130B0000030B100AA01AB016400783087
:10342000AD00AC012D082C020318642A20008D1871
:103430001B2A74141C2A74100D19202A0314212A23
:1034400003107418272A0318272A7410282A7414C2
:1034500020000D182D2A03142E2A03107418342A64
:103460000318342A7410352A7414741C412A8831C4
:103470005B25983121006F08013A031D412AEF01B5
:10348000772C90310020983180302F06F00080306A
:103490002B067002031D4E2A2A082E020318582AF2
:1034A0002A08AE002B08AF002608B0002708B1009C
:1034B0001430FC007930FD00FD0B5C2AFC0B5C2A0B
:1034C00000000000AC0A122A64002E082100ED0062
:1034D00026002F082100EE0026003008B200310837
:1034E000B300883198259831803026003106F000ED
:1034F00080307002031D7E2A64303002031C9D2A36
:103500008831D226983122006A08F0008031E22703
:10351000983122006B08F4006C08F5006D08F60085
:103520006E08F70088318A2298318831F02298316C
:1035300070082200E8007108E90021006D082600EB
:10354000B20021006E082600B3003008B400310834
:10355000B5009031A2219831640022006F08013A31
:10356000031D772C25006F08043A0130031D00303D
:10357000F1006F08053A0130031D0030F0007108BA
:10358000F0040319982B02302600CE001030CF0033
:10359000A030D0000130D1000830D200883118248A
:1035A00098310330FB008A30FC005530FD00FD0BE4
:1035B000D72AFC0BD72AFB0BD72A000000000230C9
:1035C0002600CE001030CF00A930D0000130D1004D
:1035D0000830D2008831182498310D30FB00AF300C
:1035E000FC00B630FD00FD0BF32AFC0BF32AFB0BAD
:1035F000F32A0000640002302600CE001030CF0015
:10360000B230D0000130D1000830D2008831182407
:1036100098310830FB009D30FC000530FD00FD0BAB
:103620000F2BFC0B0F2BFB0B0F2B0000000064007B
:1036300002302600CE001030CF005F30D0000130C5
:10364000D1000830D2008831182498310D30FB00A9
:10365000AF30FC00B630FD00FD0B2C2BFC0B2C2BEF
:10366000FB0B2C2B0000640002302600CE00103033
:10367000CF00D930D0000030D1000830D2008831DE
:10368000182498310830FB009D30FC000530FD0007
:10369000FD0B482BFC0B482BFB0B482B00000000BC
:1036A000640002302600CE001030CF00E230D0009F
:1036B0000030D1000830D2008831182498310D3004
:1036C000FB00AF30FC00B630FD00FD0B652BFC0BA2
:1036D000652BFB0B652B0000640002302600CE003A
:1036E0001030CF002030D0000130D1000830D2009F
:1036F0008831182498310330FB008A30FC005530A3
:10370000FD00FD0B812BFC0B812BFB0B812B0000A3
:10371000000002302600CE001030CF00BE30D000B6
:103720000030D1000830D200883118249831692C3B
:1037300025006F08003A0319692C01302600CE00DD
:10374000CF01C730D0000030D1000830D20088311E
:10375000182498310330FB008A30FC005530FD00FE
:10376000FD0BB02BFC0BB02BFB0BB02B00000000B3
:1037700001302600CE00CF01D030D0000030D10083
:103780000830D2008831182498310D30FB00AF305A
:10379000FC00B630FD00FD0BCB2BFC0BCB2BFB0B49
:1037A000CB2B0000640001302600CE00CF01293071
:1037B000D0000130D1000830D2008831182498316F
:1037C0000830FB009D30FC000530FD00FD0BE62BB2
:1037D000FC0BE62BFB0BE62B000000006400013025
:1037E0002600CE00CF014430D0000130D100083097
:1037F000D2008831182498310D30FB00AF30FC0026
:10380000B630FD00FD0B022CFC0B022CFB0B022C36
:103810000000640001302600CE00CF014D30D00002
:103820000130D1000830D200883118249831083096
:10383000FB009D30FC000530FD00FD0B1D2CFC0B3A
:103840001D2CFB0B1D2C0000000064000130260025
:10385000CE00CF015630D0000130D1000830D20068
:103860008831182498310D30FB00AF30FC00B630A1
:10387000FD00FD0B392CFC0B392CFB0B392C000007
:10388000640001302600CE00CF013230D00001307C
:10389000D1000830D2008831182498310330FB0061
:1038A0008A30FC005530FD00FD0B542CFC0B542CD1
:1038B000FB0B542C0000000001302600CE00CF018D
:1038C0003B30D0000130D1000830D20088311824BC
:1038D0009831640010302100EB002730EC00260006
:1038E0003008B2003108B3008831982598310800BB
:1038F000640025006F08043A0130031D0030F10018
:103900006F08053A0130031D0030F0007108F00423
:103910000319202D24005008003A031DE32C260033
:10392000CE010830CF005130D0000230D100093034
:10393000D20088311824983102302600CE00103091
:10394000CF004530D0000230D1000830D20088319D
:103950001824983104302600CE001030CF004630B5
:10396000D0000230D1000830D200883118249831BC
:1039700006302600CE001630CF005E30D000023078
:10398000D1000730D20088311824983164001530F6
:10399000FB004B30FC00BE30FD00FD0BCD2CFC0BC2
:1039A000CD2CFB0BCD2C000064000D30FB00AF30A4
:1039B000FC00B630FD00FD0BDB2CFC0BDB2CFB0B05
:1039C000DB2C000064000430FB00CF30FC00013031
:1039D000FD00FD0BE92CFC0BE92CFB0BE92C000096
:1039E000000024006F08013A031D042D2600CE01BB
:1039F0001030CF00A930D0000230D1000830D20002
:103A0000883118249831112D2600CE011030CF00B6
:103A10006630D0000230D1000830D200883118243E
:103A2000983102302600CE001030CF00A030D000F8
:103A30000230D1000830D200883118249831A72DE7
:103A400025006F08003A0319A72D24005008003AFA
:103A5000031D612D2600CE01CF013430D00002308D
:103A6000D1001030D200883118249831013026005E
:103A7000CE00CF01DF30D0000130D1001030D200B5
:103A800088311824983164001030FB003930FC0074
:103A90000D30FD00FD0B4A2DFC0B4A2DFB0B4A2D72
:103AA0000000000064000D30FB00AF30FC00B630B9
:103AB000FD00FD0B592DFC0B592DFB0B592D000062
:103AC00064000430FB00CF30FC000130FD00FD0B32
:103AD000672DFC0B672DFB0B672D000000002600F7
:103AE000CE010830CF002030D0000230D1000130AC
:103AF000D20088311824983124006F08013A031D40
:103B00008E2D2600CE01CF01BB30D0000130D10078
:103B10001130D2008831182498319A2D2600CE0118
:103B2000CF01CD30D0000130D1001130D20088312A
:103B30001824983101302600CE00CF012230D00069
:103B40000230D1001130D20088311824983164003D
:103B50008831752098310800A031202598319031A6
:103B6000332798310330FB008A30FC005530FD00CC
:103B7000FD0BB82DFC0BB82DFB0BB82D0000000081
:103B80006400A03100209831903110279831250031
:103B90006F08003A031DCF2D22000D178D1722004C
:103BA0006A08F0008031E227983122006B08F400A7
:103BB0006C08F5006D08F6006E08F70088318A225F
:103BC00098318831F022983170082200E80071089D
:103BD000E9000630FB001330FC00AD30FD00FD0BAA
:103BE000EF2DFC0BEF2DFB0BEF2D00000000640010
:103BF00021003208053A031D002E0130AD000D2EC4
:103C00003208063A031D072E0230AD000D2E320891
:103C1000073A031D0D2E0430AD002B08053A031D95
:103C2000142E0130AC00212E2B08063A031D1B2E4A
:103C30000230AC00212E2B08073A031D212E043040
:103C4000AC0088312127983120002308003A031D59
:103C5000772EFF302600B200883167269831700831
:103C60002000EB00FE302600B20088316726983134
:103C700070082000ED00FD302600B2008831672674
:103C8000983170082000EF00FC302600B200883127
:103C90006726983170082500ED00EC01FB30260006
:103CA000B20088316726983170082500EC07003093
:103CB000ED3D20006D082600AC0090318E26983135
:103CC00020006B082600AC008831AA27983120001C
:103CD0006F082600AC008831F126983121002908B0
:103CE000013A031D762E01302400D000782488315B
:103CF0007520983164000522003022006906031DFA
:103D0000832E0030680603198A2E0130E802003045
:103D1000E93B9F2E20002308003A0130031D0030AC
:103D2000F10022006A08003A013003190030F00067
:103D30007108F00503199F2E8831032798317A2ED8
:103D4000A02EFF3F4534463446343D3420342034E1
:103D50003034253400340034003407340134013465
:103D600000341034273400340734003430342E3417
:103D700030343034003430342E3430343034003485
:103D80005334573452343D342034203420342034DA
:103D900000342034203420342034203420342034A3
:103DA000203400344F345634453452344C344F347C
:103DB000413444340034203420342034203420343E
:103DC00020342034203400344F34563445345234B7
:103DD0004C344F344134443400345034573452342A
:103DE0003D342034203430345734203441344E3480
:103DF00054343D342034203430345734003450347B
:103E0000573452343D3430342E3430345734203427
:103E100041344E3454343D3430342E3430345734FD
:103E20000034203457344234323443344234413441
:103E30002034263420344E3437344434443443342C
:103E4000203400344F345634453452344C344F34DB
:103E5000413444340034203420342034203420349D
:103E600020342034203400344F3456344534523416
:103E70004C344F344134443400344F345634453498
:103E800052344C344F3441344434003420342034E0
:103E900020342034203420342034203400342034A2
:103EA0002034203420342034203420342034003492
:103EB0002034203420342034203420342034203462
:103EC00000345334573452343D34203420342034B9
:103ED0002034003420342034203420342034203462
:103EE0002034203400344F345634453452344C346A
:103EF0004F344134443400342034203420342034CE
:103F00002034203420342034003453345734523495
:103F10003D3430342E343034303400340034003406
:103F200000340034FF3FFF3FFF3FFF3FFF3FFF3FB5
:103F3000FF3FFF3FFF3FFF3FFF3FFF3FFF3FFF3F91
:103F4000FF3FFF3FFF3FFF3FFF3FFF3FFF3FFF3F81
:103F5000FF3FFF3FFF3FFF3FFF3FFF3FFF3FFF3F71
:103F6000FF3FFF3FFF3FFF3FFF3FFF3FFF3FFF3F61
:103F7000FF3FFF3FFF3FFF3FFF3FFF3FFF3FFF3F51
:103F8000FF3FFF3FFF3FFF3FFF3FFF3FFF3FFF3F41
:103F9000FF3FFF3FFF3FFF3FFF3FFF3FFF3FFF3F31
:103FA000FF3FFF3FFF3FFF3FFF3FFF3FFF3FFF3F21
:103FB000FF3FFF3FFF3FFF3FFF3FFF3FFF3FFF3F11
:103FC000FF3FFF3FFF3FFF3FFF3FFF3FFF3FFF3F01
:103FD000FF3FFF3FFF3FFF3FFF3FFF3FFF3FFF3FF1
:103FE000FF3FFF3FFF3FFF3FFF3FFF3FFF3FFF3FE1
:103FF000FF3FFF3FFF3FFF3FFF3FFF3FFF3FFF3FD1
:10400000640001302600B20088316726A0317008B4
:104010002500EF0002302600B20088316726A0316B
:104020007008013A031D172801302100B300033046
:104030002600B20088316726A03170082600B20041
:1040400088318525A03170082500C400C5010430E1
:104050002600B20088316726A03170082600B20021
:1040600088318525A0310A30F4008031E720A03165
:1040700070082600A8007108A9000530B200883138
:104080006726A03170082600B20088318525A0314E
:104090000A30F4008031E720A03170082600A20029
:1040A0007108A3000630B20088316726A03170087D
:1040B0002600B20088318525A0310A30F400803115
:1040C000E720A03170082600A0007108A100093087
:1040D000B20088316726A03170082600B20088310E
:1040E0008525A0310A30F4008031E720A031700826
:1040F0002600A4007108A5000A30B20088316726A6
:10410000A03170082100B2000B302600B2008831C7
:104110006726A03170082100AE000C302600B200E6
:1041200088316726A03170082100AB000D302600D1
:10413000B20088316726A03170082100AA000E3035
:104140002600B20088316726A03170082000EE00FA
:104150000F302600B20088316726A0317008210098
:10416000B100640010302600B20088316726A0310B
:1041700070082600B20088318525A0316430F40033
:104180008031E720A03170082600AC007108AD0036
:104190001130B20088316726A03170082600B200C5
:1041A00088318525A03170082C072500C200003019
:1041B00026002D3D2500C30012302600B2008831B4
:1041C0006726A03170082600B20088318525A0310D
:1041D0006430F4008031E720A03170082600AC0084
:1041E0007108AD001330B20088316726A031700825
:1041F0002600B20088318525A03170082C072500E3
:10420000DA00003026002D3D2500DB0014302600AA
:10421000B20088316726A03170082600B2008831CC
:104220008525A0316430F4008031E720A03170088A
:104230002600AC007108AD001530B2008831672649
:10424000A03170082600B20088318525A0317008A1
:104250002C072500D800003026002D3D2500D90070
:1042600016302600B20088316726A031700826007B
:10427000B20088318525A0316430F4008031E72018
:10428000A03170082600AC007108AD001730B200F4
:1042900088316726A03170082600B2008831852554
:1042A000A03170082C072500DE00003026002D3DCF
:1042B0002500DF0018302600B20088316726A031C3
:1042C00070082600B20088318525A0316430F400E2
:1042D0008031E720A03170082600AC007108AD00E5
:1042E0001930B20088316726A03170082600B2006C
:1042F00088318525A03170082C072500DC000030AE
:1043000026002D3D2500DD001A302600B200883140
:104310006726A03170082600B20088318525A031BB
:104320006430F4008031E720A03170082600AC0032
:104330007108AD001B30B20088316726A0317008CB
:104340002600B20088318525A03170082C07250091
:10435000D600003026002D3D2500D7001C30260059
:10436000B20088316726A03170082600B20088317B
:104370008525A0316430F4008031E720A031700839
:104380002600AC007108AD001D30B20088316726F0
:10439000A03170082600B20088318525A031700850
:1043A0002C072500CD00003026002D3D2500CE0035
:1043B00020302600B20088316726A0317008260020
:1043C000B20088318525A0316430F4008031E720C7
:1043D000A03170082600AC007108AD002130B20099
:1043E00088316726A03170082600B2008831852503
:1043F000A03170082C072500BA00003026002D3DA2
:104400002500BB0022302600B20088316726A0318B
:1044100070082600B20088318525A0316430F40090
:104420008031E720A03170082600AC007108AD0093
:104430002330B20088316726A03170082600B20010
:1044400088318525A03170082C072500B800003080
:1044500026002D3D2500B90024302600B200883109
:104460006726A03170082600B20088318525A0316A
:104470006430F4008031E720A03170082600AC00E1
:104480007108AD002530B20088316726A031700870
:104490002600B20088318525A03170082C07250040
:1044A000BE00003026002D3D2500BF00263026002E
:1044B000B20088316726A03170082600B20088312A
:1044C0008525A0316430F4008031E720A0317008E8
:1044D0002600AC007108AD002730B2008831672695
:1044E000A03170082600B20088318525A0317008FF
:1044F0002C072500BC00003026002D3D2500BD0006
:1045000028302600B20088316726A03170082600C6
:10451000B20088318525A0316430F4008031E72075
:10452000A03170082600AC007108AD002930B2003F
:1045300088316726A03170082600B20088318525B1
:10454000A03170082C072500B600003026002D3D54
:104550002500B7002A302600B20088316726A03136
:1045600070082600B20088318525A0316430F4003F
:104570008031E720A03170082600AC007108AD0042
:104580002B30B20088316726A03170082600B200B7
:1045900088318525A03170082C072500B400003033
:1045A00026002D3D2500B5002C302600B2008831B4
:1045B0006726A03170082600B20088318525A03119
:1045C0006430F4008031E720A03170082600AC0090
:1045D0007108AD002D30B20088316726A031700817
:1045E0002600B20088318525A03170082C072500EF
:1045F000B200003026002D3D2500B30030302600EB
:10460000B20088316726A03170082400EF003130F5
:104610002600B20088316726A03170082600B2005B
:1046200088318525A03170082000EC00323026004A
:10463000B20088316726A03170082600B2008831A8
:104640008525A03170082200EA0033302600B20030
:1046500088316726A03170082000A200343026007F
:10466000B20088316726A03170082600B200883178
:104670008525A03170082500EE0064000800003494
:104680000034003400340034003400345F3400342B
:1046900000340034073400340734003414347F34D9
:1046A00014347F34143424342A347F342A341234BA
:1046B0002334133408346434623436344934553482
:1046C00022345034003405340334003400340034D0
:1046D0001C342234413400340034413422341C343C
:1046E000003408342A341C342A340834083408349A
:1046F0003E3408340834003450343034003400344C
:104700000834083408340834083400343034303481
:1047100000340034203410340834043402343E347D
:104720005134493445343E34003442347F344034CB
:1047300000344234613451344934463421344134F4
:1047400045344B3431341834143412347F3410343B
:10475000273445344534453439343C344A344934BB
:104760004934303401347134093405340334363477
:1047700049344934493436340634493449342934C7
:104780001E340034363436340034003400345634A9
:1047900036340034003400340834143422344134C4
:1047A000143414341434143414344134223414348E
:1047B00008340034023401345134093406343234BC
:1047C0004934793441343E347E3411341134113457
:1047D0007E347F3449344934493436343E344134AC
:1047E0004134413422347F344134413422341C3446
:1047F0007F3449344934493441347F3409340934ED
:10480000013401343E3441344134513432347F3444
:104810000834083408347F34003441347F34413460
:1048200000342034403441343F3401347F34083480
:104830001434223441347F344034403440344034E2
:104840007F340234043402347F347F340434083437
:1048500010347F343E344134413441343E347F346B
:1048600009340934093406343E3441345134213496
:104870005E347F340934193429344634463449349B
:10488000493449343134013401347F340134013442
:104890003F344034403440343F341F3420344034BB
:1048A00020341F347F342034183420347F34633470
:1048B0001434083414346334033404347834043442
:1048C00003346134513449344534433400340034C2
:1048D0007F344134413402340434083410342034F9
:1048E000413441347F340034003404340234013420
:1048F00002340434403440344034403440340034D2
:1049000001340234043400342034543454345434E4
:1049100078347F344834443444343834383444347C
:1049200044344434203438344434443448347F34B8
:104930003834543454345434183408347E340934FC
:104940000134023408341434543454343C347F3445
:104950000834043404347834003444347D3440342E
:1049600000342034403444343D34003400347F3447
:10497000103428344434003441347F34403400341B
:104980007C3404341834043478347C3408340434EB
:1049900004347834383444344434443438347C3443
:1049A00014341434143408340834143414341834DB
:1049B0007C347C34083404340434083448345434AB
:1049C00054345434203404343F3444344034203498
:1049D0003C344034403420347C341C342034403463
:1049E00020341C343C344034303440343C3444347F
:1049F00028341034283444340C3450345034503477
:104A00003C344434643454344C3444340034083436
:104A1000363441340034003400347F340034003400
:104A200000344134363408340034083408342A342D
:104A30001C34083408341C342A3408340834FF3F4A
:104A4000AA308400973085004E30F0000130F1002C
:104A500022308600003087008831EC27A031A23058
:104A600084009E3085004B30F0000130F100A03012
:104A70008600003087008831EC27A0314630840062
:104A80009F3085002430F0000130F1002030860096
:104A9000013087008831EC27A031FE3084008F3050
:104AA00085000230F0000130F100EB30860000306C
:104AB00087008831EC27A031223084009F308500A8
:104AC0002430F0000130F1004430860001308700CE
:104AD0008831EC27A0318E3084009F308500023071
:104AE000F0000130F100ED308600003087008831A1
:104AF000EC27A031FD308400973085000230F000B3
:104B00000130F10068308600013087008831EC27E1
:104B1000A031913084009F3085000130F0000130D9
:104B2000F100EF308600003087008831EC27A0319B
:104B3000903084009F3085000130F0000130F1009A
:104B40006A308600013087008831EC27A0316A3056
:104B500084009F3085001B30F0000130F100A03050
:104B60008600013087008831EC27A031F8308400BE
:104B7000973085000530F0000130F1006B30860081
:104B8000013087008831EC27A031ED3084009E3061
:104B900085003530F0000130F100BB308600013077
:104BA00087008831EC27A0315B3084009730850086
:104BB0004F30F0000130F1002030860002308700D5
:104BC0008831EC27A031853084009F308500093082
:104BD000F0000130F100A0308600023087008831FB
:104BE000EC27A031FF308400973085000130F000C1
:104BF0000130F1006F308600023087008831EC27E9
:104C0000A031F53084008F3085000930F00001308C
:104C1000F100A9308600023087008831EC27A031EE
:104C20000800FF3FFF3FFF3FFF3FFF3FFF3FFF3FCA
:104C3000FF3FFF3FFF3FFF3FFF3FFF3FFF3FFF3F84
:104C4000FF3FFF3FFF3FFF3FFF3FFF3FFF3FFF3F74
:104C5000FF3FFF3FFF3FFF3FFF3FFF3FFF3FFF3F64
:104C6000FF3FFF3FFF3FFF3FFF3FFF3FFF3FFF3F54
:020000040001F9
:10E000007800030000001500130005000000010067
:10E0100002000000070000000700000001000000EF
:10E020000000500001001000020020000400500019
:10E03000100000002200000045000000FF00FF006B
:10E040000000100000002200000047000100000056
:10E05000020020000400700010000000FF00FF001C
:10E0600000000500000001000000FF00FF00FF00AD
:10E07000FF00FF00FF00FF00FF00FF00FF00FF00A8
:10E08000FF00FF00FF00FF00FF00FF00FF00FF0098
:10E09000FF00FF00FF00FF00FF00FF00FF00FF0088
:10E0A000FF00FF00FF00FF00FF00FF00FF00FF0078
:10E0B000FF00FF00FF00FF00FF00FF00FF00FF0068
:10E0C000FF00FF00FF00FF00FF00FF00FF00FF0058
:10E0D000FF00FF00FF00FF00FF00FF00FF00FF0048
:10E0E000FF00FF00FF00FF00FF00FF00FF00FF0038
:10E0F000FF00FF00FF00FF00FF00FF00FF00FF0028
:10E10000FF00FF00FF00FF00FF00FF00FF00FF0017
:10E11000FF00FF00FF00FF00FF00FF00FF00FF0007
:10E12000FF00FF00FF00FF00FF00FF00FF00FF00F7
:10E13000FF00FF00FF00FF00FF00FF00FF00FF00E7
:10E14000FF00FF00FF00FF00FF00FF00FF00FF00D7
:10E15000FF00FF00FF00FF00FF00FF00FF00FF00C7
:10E16000FF00FF00FF00FF00FF00FF00FF00FF00B7
:10E17000FF00FF00FF00FF00FF00FF00FF00FF00A7
:10E18000FF00FF00FF00FF00FF00FF00FF00FF0097
:10E19000FF00FF00FF00FF00FF00FF00FF00FF0087
:10E1A000FF00FF00FF00FF00FF00FF00FF00FF0077
:10E1B000FF00FF00FF00FF00FF00FF00FF00FF0067
:10E1C000FF00FF00FF00FF00FF00FF00FF00FF0057
:10E1D000FF00FF00FF00FF00FF00FF00FF00FF0047
:10E1E000FF00FF00FF00FF00FF00FF00FF00FF0037
:10E1F000FF00FF00FF00E700030001000300000034
:020000040001F9
:04000E00E23F331684
:020000040001F9
:08000000FF3FFF3FFF3FFF3F00
:00000001FF
